:020000040000FA
:020000000B28CB
:10000800DE00030E8312A0000A08A10082280C2833
:100018008312A801A90183011128831699010730C9
:100028008312990083169F01831285018316850127
:10003800942032308312A2000030A3002908A500C2
:100048002808A4004F20831222082304031D2E2809
:10005800013085064630A2000030A3002908A5001B
:100068002808A4004F20831222082304031D3E28D9
:1000780002308506DC30A2000030A3002908A50064
:100088002808A4004F20831222082304031D1D28DA
:10009800043085061D2883122208230403197D28AD
:1000A800A701A70AA31B642801300310A20DA30D02
:1000B800FF3E031D59280130A6002608A707562829
:1000C80023082502031D6A2822082402031C72281B
:1000D8002208A4022308031CA503A502013003106B
:1000E800A30CA20CFF3E031D73280130A702031DB9
:1000F80064282508A3002408A20008000B1D8D28E9
:100108000130A8070318A90A0030A907FC308100AC
:100118000B1121088A00200E8300DE0E5E0E0900F6
:10012800FC30831281008B170B178B160B1183166B
:0E0138008112011681110114811401150800B5
:02400E009431EB
:00000001FF
