:020000000B28CB
:10000800DE00030E8312A1000A08A200B0290C2802
:1000180083133C3084004B305F228301E528FF3096
:100028008312AF000330B0003D08AA003C08A900C5
:100038003230AB000030AC00E72183122A08B2004E
:100048002908B1007D2083123008BB002F08BA00B0
:100058003B08803AB8004108803A3802031D362828
:1000680040083A02031C39283A284F288312C11B3A
:100078003E283F284F280130C0070318C10A003026
:10008800C1070D30B900FB30B800B80B4928B90BCF
:1000980049284E287C2883124108803AB8003B083A
:1000A800803A3802031D5A283A084002031C5D288A
:1000B8005E287C2883124108803ADF0080305F0286
:1000C800031D68283330400203186B286C287C28ED
:1000D800FF308312C0070318C10AFF30C1070D3073
:1000E800B900FB30B800B80B7728B90B77287C2803
:1000F80008008312B501B01F822883288A28AF0917
:10010800B009AF0A0319B00AB501B50AB21F8D28A4
:100118008E289728B109B209B10A0319B20A013029
:10012800B3003308B506B601B7012F083004031928
:100138009E289F28D628B401B40AAD2801300310A0
:10014800AF0DB00DFF3E031DA3280130B3003308E7
:10015800B407B01FB028B128A22801300310B60D8B
:10016800B70DFF3E031DB22830083202031DBE281A
:100178002F083102031CC128C228C9282F08B10240
:100188003008031CB203B202361401300310B00C5D
:10019800AF0CFF3E031DCA280130B402031DD52849
:1001A800D628B12835080319DA28DB28E028B6094B
:1001B800B709B60A0319B70A3708B0003608AF00FE
:1001C80008008316990107308312990001308316BD
:1001D80085008312850150222F2240221E3083126F
:1001E800A3000030A4004908A6004808A50075210E
:1001F800831223082404031D022903291D29FF3023
:10020800AF000330B0000D2283122408AA0023088F
:10021800A9003230AB000030AC00E72183122A0875
:10022800B2002908B100302183123008BD002F0820
:10023800BC003230A3000030A4004908A6004808DA
:10024800A5007521831223082404031D2C292D29B8
:10025800F2281320F2280B288312B401B5012F08C5
:1002680030040319382939297029B601B60A4729F3
:1002780001300310AF0DB00DFF3E031D3D290130C5
:10028800B3003308B607B01F4A294B293C2901306F
:100298000310B40DB50DFF3E031D4C293008320282
:1002A800031D58292F083102031C5B295C29632987
:1002B8002F08B1023008031CB203B2023414013013
:1002C8000310B00CAF0CFF3E031D64290130B602C9
:1002D800031D6F2970294B293508B0003408AF0079
:1002E800080083122308240403197B297C29AB29DD
:1002F800A801A80A8A2901300310A30DA40DFF3E06
:10030800031D80290130A7002708A807A41F8D29ED
:100318008E297F2924082602031D942923082502F3
:10032800031C972998299E292308A5022408031C41
:10033800A603A60201300310A40CA30CFF3E031D64
:100348009F290130A802031DAA29AB298E29260856
:10035800A4002508A30008000B1DB329B429BD2952
:100368000130C8070318C90A0030C907FC308100EA
:100378000B110C1CC029C129E0290130A00020085C
:10038800CA073D08803A803C031DCC293C084A0234
:10039800031CCF29D029D229831285103230831229
:1003A8004A06031DD829D929DB298514CA010C104E
:1003B800FF308F0037308E0022088A00210E83001C
:1003C800DE0E5E0E09008312AD01AE01291CED2977
:1003D800EE29F4292B08AD070318AE0A2C08AE073E
:1003E80001300310AB0DAC0DFF3E031DF5290130A4
:1003F8000310AA0CA90CFF3E031DFC2929082A0496
:10040800031D072A082AEA292E08AA002D08A90090
:10041800080083129F149F18122A132A0F2A1E08F5
:10042800A500A6012508A600A5012508A7002608FD
:10043800A80083161E0883122707A500280803189A
:10044800280AA6002508A7002608A8002808A4004E
:100458002708A300080083129F171F13F3309F0576
:1004680083161F088F3940389F001F08F03901385C
:100478009F0083121F140800FF3083128F0037304B
:100488008E00901010129012101483160C14831200
:100498000C100B178B170800FC30831281008B1788
:1004A8000B178B160B11831681120116811101147B
:1004B80081140115080064008001840A04060319E8
:0604C80000340406602A66
:02400E009431EB
:00000001FF
